{
  "_format": "hh-sol-artifact-1",
  "contractName": "AjunaWrapper",
  "sourceName": "contracts/AjunaWrapper.sol",
  "abi": [
    {
      "inputs": [
        {
          "internalType": "address",
          "name": "_token",
          "type": "address"
        },
        {
          "internalType": "address",
          "name": "_foreignAssetPrecompile",
          "type": "address"
        }
      ],
      "stateMutability": "nonpayable",
      "type": "constructor"
    },
    {
      "inputs": [],
      "name": "EnforcedPause",
      "type": "error"
    },
    {
      "inputs": [],
      "name": "ExpectedPause",
      "type": "error"
    },
    {
      "inputs": [
        {
          "internalType": "address",
          "name": "owner",
          "type": "address"
        }
      ],
      "name": "OwnableInvalidOwner",
      "type": "error"
    },
    {
      "inputs": [
        {
          "internalType": "address",
          "name": "account",
          "type": "address"
        }
      ],
      "name": "OwnableUnauthorizedAccount",
      "type": "error"
    },
    {
      "inputs": [],
      "name": "ReentrancyGuardReentrantCall",
      "type": "error"
    },
    {
      "anonymous": false,
      "inputs": [
        {
          "indexed": true,
          "internalType": "address",
          "name": "user",
          "type": "address"
        },
        {
          "indexed": false,
          "internalType": "uint256",
          "name": "amount",
          "type": "uint256"
        }
      ],
      "name": "Deposited",
      "type": "event"
    },
    {
      "anonymous": false,
      "inputs": [
        {
          "indexed": true,
          "internalType": "address",
          "name": "oldAddress",
          "type": "address"
        },
        {
          "indexed": true,
          "internalType": "address",
          "name": "newAddress",
          "type": "address"
        }
      ],
      "name": "ForeignAssetUpdated",
      "type": "event"
    },
    {
      "anonymous": false,
      "inputs": [
        {
          "indexed": true,
          "internalType": "address",
          "name": "previousOwner",
          "type": "address"
        },
        {
          "indexed": true,
          "internalType": "address",
          "name": "newOwner",
          "type": "address"
        }
      ],
      "name": "OwnershipTransferred",
      "type": "event"
    },
    {
      "anonymous": false,
      "inputs": [
        {
          "indexed": false,
          "internalType": "address",
          "name": "account",
          "type": "address"
        }
      ],
      "name": "Paused",
      "type": "event"
    },
    {
      "anonymous": false,
      "inputs": [
        {
          "indexed": true,
          "internalType": "address",
          "name": "tokenAddress",
          "type": "address"
        },
        {
          "indexed": true,
          "internalType": "address",
          "name": "to",
          "type": "address"
        },
        {
          "indexed": false,
          "internalType": "uint256",
          "name": "amount",
          "type": "uint256"
        }
      ],
      "name": "TokenRescued",
      "type": "event"
    },
    {
      "anonymous": false,
      "inputs": [
        {
          "indexed": false,
          "internalType": "address",
          "name": "account",
          "type": "address"
        }
      ],
      "name": "Unpaused",
      "type": "event"
    },
    {
      "anonymous": false,
      "inputs": [
        {
          "indexed": true,
          "internalType": "address",
          "name": "user",
          "type": "address"
        },
        {
          "indexed": false,
          "internalType": "uint256",
          "name": "amount",
          "type": "uint256"
        }
      ],
      "name": "Withdrawn",
      "type": "event"
    },
    {
      "inputs": [
        {
          "internalType": "uint256",
          "name": "amount",
          "type": "uint256"
        }
      ],
      "name": "deposit",
      "outputs": [],
      "stateMutability": "nonpayable",
      "type": "function"
    },
    {
      "inputs": [],
      "name": "foreignAsset",
      "outputs": [
        {
          "internalType": "contract IERC20Precompile",
          "name": "",
          "type": "address"
        }
      ],
      "stateMutability": "view",
      "type": "function"
    },
    {
      "inputs": [],
      "name": "owner",
      "outputs": [
        {
          "internalType": "address",
          "name": "",
          "type": "address"
        }
      ],
      "stateMutability": "view",
      "type": "function"
    },
    {
      "inputs": [],
      "name": "pause",
      "outputs": [],
      "stateMutability": "nonpayable",
      "type": "function"
    },
    {
      "inputs": [],
      "name": "paused",
      "outputs": [
        {
          "internalType": "bool",
          "name": "",
          "type": "bool"
        }
      ],
      "stateMutability": "view",
      "type": "function"
    },
    {
      "inputs": [],
      "name": "renounceOwnership",
      "outputs": [],
      "stateMutability": "nonpayable",
      "type": "function"
    },
    {
      "inputs": [
        {
          "internalType": "address",
          "name": "tokenAddress",
          "type": "address"
        },
        {
          "internalType": "address",
          "name": "to",
          "type": "address"
        },
        {
          "internalType": "uint256",
          "name": "amount",
          "type": "uint256"
        }
      ],
      "name": "rescueToken",
      "outputs": [],
      "stateMutability": "nonpayable",
      "type": "function"
    },
    {
      "inputs": [],
      "name": "token",
      "outputs": [
        {
          "internalType": "contract AjunaERC20",
          "name": "",
          "type": "address"
        }
      ],
      "stateMutability": "view",
      "type": "function"
    },
    {
      "inputs": [
        {
          "internalType": "address",
          "name": "newOwner",
          "type": "address"
        }
      ],
      "name": "transferOwnership",
      "outputs": [],
      "stateMutability": "nonpayable",
      "type": "function"
    },
    {
      "inputs": [],
      "name": "unpause",
      "outputs": [],
      "stateMutability": "nonpayable",
      "type": "function"
    },
    {
      "inputs": [
        {
          "internalType": "address",
          "name": "_newForeignAsset",
          "type": "address"
        }
      ],
      "name": "updateForeignAsset",
      "outputs": [],
      "stateMutability": "nonpayable",
      "type": "function"
    },
    {
      "inputs": [
        {
          "internalType": "uint256",
          "name": "amount",
          "type": "uint256"
        }
      ],
      "name": "withdraw",
      "outputs": [],
      "stateMutability": "nonpayable",
      "type": "function"
    }
  ],
  "bytecode": "0x60a060405234801561001057600080fd5b50604051610de6380380610de683398101604081905261002f916101c8565b338061005657604051631e4fbdf760e01b8152600060048201526024015b60405180910390fd5b61005f8161015c565b50600180556001600160a01b0382166100c65760405162461bcd60e51b815260206004820152602360248201527f416a756e61577261707065723a20746f6b656e206973207a65726f206164647260448201526265737360e81b606482015260840161004d565b6001600160a01b03811661012d5760405162461bcd60e51b815260206004820152602860248201527f416a756e61577261707065723a20707265636f6d70696c65206973207a65726f604482015267206164647265737360c01b606482015260840161004d565b6001600160a01b03918216608052600280549190921661010002610100600160a81b03199091161790556101fb565b600080546001600160a01b038381166001600160a01b0319831681178455604051919092169283917f8be0079c531659141344cd1fd0a4f28419497f9722a3daafe3b4186f6b6457e09190a35050565b80516001600160a01b03811681146101c357600080fd5b919050565b600080604083850312156101db57600080fd5b6101e4836101ac565b91506101f2602084016101ac565b90509250929050565b608051610bbb61022b6000396000818161018f01528181610222015281816102ff015261060a0152610bbb6000f3fe608060405234801561001057600080fd5b50600436106100b45760003560e01c8063a3462b1411610071578063a3462b1414610126578063b6b55f251461013e578063e5711e8b14610151578063e684e86b14610164578063f2fde38b14610177578063fc0c546a1461018a57600080fd5b80632e1a7d4d146100b95780633f4ba83a146100ce5780635c975abb146100d6578063715018a6146100f15780638456cb59146100f95780638da5cb5b14610101575b600080fd5b6100cc6100c7366004610ab7565b6101b1565b005b6100cc61047d565b60025460ff1660405190151581526020015b60405180910390f35b6100cc61048f565b6100cc6104a1565b6000546001600160a01b03165b6040516001600160a01b0390911681526020016100e8565b60025461010e9061010090046001600160a01b031681565b6100cc61014c366004610ab7565b6104b1565b6100cc61015f366004610aec565b6106a0565b6100cc610172366004610b28565b61083e565b6100cc610185366004610b28565b6108ff565b61010e7f000000000000000000000000000000000000000000000000000000000000000081565b6101b961093a565b6101c1610964565b6000811161020b5760405162461bcd60e51b81526020600482015260126024820152710416d6f756e74206d757374206265203e20360741b60448201526064015b60405180910390fd5b6040516370a0823160e01b815233600482015281907f00000000000000000000000000000000000000000000000000000000000000006001600160a01b0316906370a0823190602401602060405180830381865afa158015610271573d6000803e3d6000fd5b505050506040513d601f19601f820116820180604052508101906102959190610b4a565b10156102e35760405162461bcd60e51b815260206004820152601a60248201527f496e73756666696369656e742045524332302062616c616e63650000000000006044820152606401610202565b60405163079cc67960e41b8152336004820152602481018290527f00000000000000000000000000000000000000000000000000000000000000006001600160a01b0316906379cc679090604401600060405180830381600087803b15801561034b57600080fd5b505af115801561035f573d6000803e3d6000fd5b505060025460405163a9059cbb60e01b815233600482015260248101859052600093506101009091046001600160a01b0316915063a9059cbb906044016020604051808303816000875af11580156103bb573d6000803e3d6000fd5b505050506040513d601f19601f820116820180604052508101906103df9190610b63565b90508061043a5760405162461bcd60e51b8152602060048201526024808201527f466f726569676e2041737365742072657475726e207472616e736665722066616044820152631a5b195960e21b6064820152608401610202565b60405182815233907f7084f5476618d8e60b11ef0d7d3f06914655adb8793e28ff7f018d4c76d505d5906020015b60405180910390a25061047a60018055565b50565b610485610988565b61048d6109b5565b565b610497610988565b61048d6000610a07565b6104a9610988565b61048d610a57565b6104b961093a565b6104c1610964565b600081116105065760405162461bcd60e51b81526020600482015260126024820152710416d6f756e74206d757374206265203e20360741b6044820152606401610202565b6002546040516323b872dd60e01b81523360048201523060248201526044810183905260009161010090046001600160a01b0316906323b872dd906064016020604051808303816000875af1158015610563573d6000803e3d6000fd5b505050506040513d601f19601f820116820180604052508101906105879190610b63565b9050806105ee5760405162461bcd60e51b815260206004820152602f60248201527f466f726569676e204173736574207472616e73666572206661696c65642e204360448201526e6865636b20616c6c6f77616e63653f60881b6064820152608401610202565b6040516340c10f1960e01b8152336004820152602481018390527f00000000000000000000000000000000000000000000000000000000000000006001600160a01b0316906340c10f1990604401600060405180830381600087803b15801561065657600080fd5b505af115801561066a573d6000803e3d6000fd5b50506040518481523392507f2da466a7b24304f47e87fa2e1e5a81b9831ce54fec19055ce277ca2f39ba42c49150602001610468565b6106a8610988565b6002546001600160a01b036101009091048116908416036107165760405162461bcd60e51b815260206004820152602260248201527f43616e6e6f7420726573637565206c6f636b656420666f726569676e20617373604482015261195d60f21b6064820152608401610202565b6001600160a01b0382166107785760405162461bcd60e51b8152602060048201526024808201527f416a756e61577261707065723a2072657363756520746f207a65726f206164646044820152637265737360e01b6064820152608401610202565b60405163a9059cbb60e01b81526001600160a01b0383811660048301526024820183905284169063a9059cbb906044016020604051808303816000875af11580156107c7573d6000803e3d6000fd5b505050506040513d601f19601f820116820180604052508101906107eb9190610b63565b50816001600160a01b0316836001600160a01b03167f4143f7b5cb6ea007914c32b8a3e64cebc051d7f493fa0755454da1e47701e1258360405161083191815260200190565b60405180910390a3505050565b610846610988565b6001600160a01b0381166108a65760405162461bcd60e51b815260206004820152602160248201527f416a756e61577261707065723a206e65772061646472657373206973207a65726044820152606f60f81b6064820152608401610202565b600280546001600160a01b03838116610100818102610100600160a81b031985161790945560405193909204169182907e2c0969fd690d94ccb54e92eacd7703ecc103b61f03b1d5a35699497aaad49d90600090a35050565b610907610988565b6001600160a01b03811661093157604051631e4fbdf760e01b815260006004820152602401610202565b61047a81610a07565b60026001540361095d57604051633ee5aeb560e01b815260040160405180910390fd5b6002600155565b60025460ff161561048d5760405163d93c066560e01b815260040160405180910390fd5b6000546001600160a01b0316331461048d5760405163118cdaa760e01b8152336004820152602401610202565b6109bd610a94565b6002805460ff191690557f5db9ee0a495bf2e6ff9c91a7834c1ba4fdd244a5e8aa4e537bd38aeae4b073aa335b6040516001600160a01b03909116815260200160405180910390a1565b600080546001600160a01b038381166001600160a01b0319831681178455604051919092169283917f8be0079c531659141344cd1fd0a4f28419497f9722a3daafe3b4186f6b6457e09190a35050565b610a5f610964565b6002805460ff191660011790557f62e78cea01bee320cd4e420270b5ea74000d11b0c9f74754ebdbfc544b05a2586109ea3390565b60025460ff1661048d57604051638dfc202b60e01b815260040160405180910390fd5b600060208284031215610ac957600080fd5b5035919050565b80356001600160a01b0381168114610ae757600080fd5b919050565b600080600060608486031215610b0157600080fd5b610b0a84610ad0565b9250610b1860208501610ad0565b9150604084013590509250925092565b600060208284031215610b3a57600080fd5b610b4382610ad0565b9392505050565b600060208284031215610b5c57600080fd5b5051919050565b600060208284031215610b7557600080fd5b81518015158114610b4357600080fdfea2646970667358221220c2e68a17629653c6b32999ad85b9da459fda97c029526423638ec7af8b6b292864736f6c63430008140033",
  "linkReferences": {},
  "deployedLinkReferences": {}
}