{
  "_format": "hh-sol-artifact-1",
  "contractName": "AjunaERC20",
  "sourceName": "contracts/AjunaERC20.sol",
  "abi": [
    {
      "inputs": [
        {
          "internalType": "string",
          "name": "name_",
          "type": "string"
        },
        {
          "internalType": "string",
          "name": "symbol_",
          "type": "string"
        },
        {
          "internalType": "address",
          "name": "admin",
          "type": "address"
        },
        {
          "internalType": "uint8",
          "name": "decimals_",
          "type": "uint8"
        }
      ],
      "stateMutability": "nonpayable",
      "type": "constructor"
    },
    {
      "inputs": [],
      "name": "AccessControlBadConfirmation",
      "type": "error"
    },
    {
      "inputs": [
        {
          "internalType": "address",
          "name": "account",
          "type": "address"
        },
        {
          "internalType": "bytes32",
          "name": "neededRole",
          "type": "bytes32"
        }
      ],
      "name": "AccessControlUnauthorizedAccount",
      "type": "error"
    },
    {
      "inputs": [
        {
          "internalType": "address",
          "name": "spender",
          "type": "address"
        },
        {
          "internalType": "uint256",
          "name": "allowance",
          "type": "uint256"
        },
        {
          "internalType": "uint256",
          "name": "needed",
          "type": "uint256"
        }
      ],
      "name": "ERC20InsufficientAllowance",
      "type": "error"
    },
    {
      "inputs": [
        {
          "internalType": "address",
          "name": "sender",
          "type": "address"
        },
        {
          "internalType": "uint256",
          "name": "balance",
          "type": "uint256"
        },
        {
          "internalType": "uint256",
          "name": "needed",
          "type": "uint256"
        }
      ],
      "name": "ERC20InsufficientBalance",
      "type": "error"
    },
    {
      "inputs": [
        {
          "internalType": "address",
          "name": "approver",
          "type": "address"
        }
      ],
      "name": "ERC20InvalidApprover",
      "type": "error"
    },
    {
      "inputs": [
        {
          "internalType": "address",
          "name": "receiver",
          "type": "address"
        }
      ],
      "name": "ERC20InvalidReceiver",
      "type": "error"
    },
    {
      "inputs": [
        {
          "internalType": "address",
          "name": "sender",
          "type": "address"
        }
      ],
      "name": "ERC20InvalidSender",
      "type": "error"
    },
    {
      "inputs": [
        {
          "internalType": "address",
          "name": "spender",
          "type": "address"
        }
      ],
      "name": "ERC20InvalidSpender",
      "type": "error"
    },
    {
      "anonymous": false,
      "inputs": [
        {
          "indexed": true,
          "internalType": "address",
          "name": "owner",
          "type": "address"
        },
        {
          "indexed": true,
          "internalType": "address",
          "name": "spender",
          "type": "address"
        },
        {
          "indexed": false,
          "internalType": "uint256",
          "name": "value",
          "type": "uint256"
        }
      ],
      "name": "Approval",
      "type": "event"
    },
    {
      "anonymous": false,
      "inputs": [
        {
          "indexed": true,
          "internalType": "bytes32",
          "name": "role",
          "type": "bytes32"
        },
        {
          "indexed": true,
          "internalType": "bytes32",
          "name": "previousAdminRole",
          "type": "bytes32"
        },
        {
          "indexed": true,
          "internalType": "bytes32",
          "name": "newAdminRole",
          "type": "bytes32"
        }
      ],
      "name": "RoleAdminChanged",
      "type": "event"
    },
    {
      "anonymous": false,
      "inputs": [
        {
          "indexed": true,
          "internalType": "bytes32",
          "name": "role",
          "type": "bytes32"
        },
        {
          "indexed": true,
          "internalType": "address",
          "name": "account",
          "type": "address"
        },
        {
          "indexed": true,
          "internalType": "address",
          "name": "sender",
          "type": "address"
        }
      ],
      "name": "RoleGranted",
      "type": "event"
    },
    {
      "anonymous": false,
      "inputs": [
        {
          "indexed": true,
          "internalType": "bytes32",
          "name": "role",
          "type": "bytes32"
        },
        {
          "indexed": true,
          "internalType": "address",
          "name": "account",
          "type": "address"
        },
        {
          "indexed": true,
          "internalType": "address",
          "name": "sender",
          "type": "address"
        }
      ],
      "name": "RoleRevoked",
      "type": "event"
    },
    {
      "anonymous": false,
      "inputs": [
        {
          "indexed": true,
          "internalType": "address",
          "name": "from",
          "type": "address"
        },
        {
          "indexed": true,
          "internalType": "address",
          "name": "to",
          "type": "address"
        },
        {
          "indexed": false,
          "internalType": "uint256",
          "name": "value",
          "type": "uint256"
        }
      ],
      "name": "Transfer",
      "type": "event"
    },
    {
      "inputs": [],
      "name": "DEFAULT_ADMIN_ROLE",
      "outputs": [
        {
          "internalType": "bytes32",
          "name": "",
          "type": "bytes32"
        }
      ],
      "stateMutability": "view",
      "type": "function"
    },
    {
      "inputs": [],
      "name": "MINTER_ROLE",
      "outputs": [
        {
          "internalType": "bytes32",
          "name": "",
          "type": "bytes32"
        }
      ],
      "stateMutability": "view",
      "type": "function"
    },
    {
      "inputs": [
        {
          "internalType": "address",
          "name": "owner",
          "type": "address"
        },
        {
          "internalType": "address",
          "name": "spender",
          "type": "address"
        }
      ],
      "name": "allowance",
      "outputs": [
        {
          "internalType": "uint256",
          "name": "",
          "type": "uint256"
        }
      ],
      "stateMutability": "view",
      "type": "function"
    },
    {
      "inputs": [
        {
          "internalType": "address",
          "name": "spender",
          "type": "address"
        },
        {
          "internalType": "uint256",
          "name": "value",
          "type": "uint256"
        }
      ],
      "name": "approve",
      "outputs": [
        {
          "internalType": "bool",
          "name": "",
          "type": "bool"
        }
      ],
      "stateMutability": "nonpayable",
      "type": "function"
    },
    {
      "inputs": [
        {
          "internalType": "address",
          "name": "account",
          "type": "address"
        }
      ],
      "name": "balanceOf",
      "outputs": [
        {
          "internalType": "uint256",
          "name": "",
          "type": "uint256"
        }
      ],
      "stateMutability": "view",
      "type": "function"
    },
    {
      "inputs": [
        {
          "internalType": "address",
          "name": "from",
          "type": "address"
        },
        {
          "internalType": "uint256",
          "name": "amount",
          "type": "uint256"
        }
      ],
      "name": "burnFrom",
      "outputs": [],
      "stateMutability": "nonpayable",
      "type": "function"
    },
    {
      "inputs": [],
      "name": "decimals",
      "outputs": [
        {
          "internalType": "uint8",
          "name": "",
          "type": "uint8"
        }
      ],
      "stateMutability": "view",
      "type": "function"
    },
    {
      "inputs": [
        {
          "internalType": "bytes32",
          "name": "role",
          "type": "bytes32"
        }
      ],
      "name": "getRoleAdmin",
      "outputs": [
        {
          "internalType": "bytes32",
          "name": "",
          "type": "bytes32"
        }
      ],
      "stateMutability": "view",
      "type": "function"
    },
    {
      "inputs": [
        {
          "internalType": "bytes32",
          "name": "role",
          "type": "bytes32"
        },
        {
          "internalType": "address",
          "name": "account",
          "type": "address"
        }
      ],
      "name": "grantRole",
      "outputs": [],
      "stateMutability": "nonpayable",
      "type": "function"
    },
    {
      "inputs": [
        {
          "internalType": "bytes32",
          "name": "role",
          "type": "bytes32"
        },
        {
          "internalType": "address",
          "name": "account",
          "type": "address"
        }
      ],
      "name": "hasRole",
      "outputs": [
        {
          "internalType": "bool",
          "name": "",
          "type": "bool"
        }
      ],
      "stateMutability": "view",
      "type": "function"
    },
    {
      "inputs": [
        {
          "internalType": "address",
          "name": "to",
          "type": "address"
        },
        {
          "internalType": "uint256",
          "name": "amount",
          "type": "uint256"
        }
      ],
      "name": "mint",
      "outputs": [],
      "stateMutability": "nonpayable",
      "type": "function"
    },
    {
      "inputs": [],
      "name": "name",
      "outputs": [
        {
          "internalType": "string",
          "name": "",
          "type": "string"
        }
      ],
      "stateMutability": "view",
      "type": "function"
    },
    {
      "inputs": [
        {
          "internalType": "bytes32",
          "name": "role",
          "type": "bytes32"
        },
        {
          "internalType": "address",
          "name": "callerConfirmation",
          "type": "address"
        }
      ],
      "name": "renounceRole",
      "outputs": [],
      "stateMutability": "nonpayable",
      "type": "function"
    },
    {
      "inputs": [
        {
          "internalType": "bytes32",
          "name": "role",
          "type": "bytes32"
        },
        {
          "internalType": "address",
          "name": "account",
          "type": "address"
        }
      ],
      "name": "revokeRole",
      "outputs": [],
      "stateMutability": "nonpayable",
      "type": "function"
    },
    {
      "inputs": [
        {
          "internalType": "bytes4",
          "name": "interfaceId",
          "type": "bytes4"
        }
      ],
      "name": "supportsInterface",
      "outputs": [
        {
          "internalType": "bool",
          "name": "",
          "type": "bool"
        }
      ],
      "stateMutability": "view",
      "type": "function"
    },
    {
      "inputs": [],
      "name": "symbol",
      "outputs": [
        {
          "internalType": "string",
          "name": "",
          "type": "string"
        }
      ],
      "stateMutability": "view",
      "type": "function"
    },
    {
      "inputs": [],
      "name": "totalSupply",
      "outputs": [
        {
          "internalType": "uint256",
          "name": "",
          "type": "uint256"
        }
      ],
      "stateMutability": "view",
      "type": "function"
    },
    {
      "inputs": [
        {
          "internalType": "address",
          "name": "to",
          "type": "address"
        },
        {
          "internalType": "uint256",
          "name": "value",
          "type": "uint256"
        }
      ],
      "name": "transfer",
      "outputs": [
        {
          "internalType": "bool",
          "name": "",
          "type": "bool"
        }
      ],
      "stateMutability": "nonpayable",
      "type": "function"
    },
    {
      "inputs": [
        {
          "internalType": "address",
          "name": "from",
          "type": "address"
        },
        {
          "internalType": "address",
          "name": "to",
          "type": "address"
        },
        {
          "internalType": "uint256",
          "name": "value",
          "type": "uint256"
        }
      ],
      "name": "transferFrom",
      "outputs": [
        {
          "internalType": "bool",
          "name": "",
          "type": "bool"
        }
      ],
      "stateMutability": "nonpayable",
      "type": "function"
    }
  ],
  "bytecode": "0x60a06040523480156200001157600080fd5b506040516200108138038062001081833981016040819052620000349162000251565b8383600362000044838262000386565b50600462000053828262000386565b5050506001600160a01b038216620000bb5760405162461bcd60e51b815260206004820152602160248201527f416a756e6145524332303a2061646d696e206973207a65726f206164647265736044820152607360f81b606482015260840160405180910390fd5b620000c8600083620000d9565b5060ff166080525062000452915050565b60008281526005602090815260408083206001600160a01b038516845290915281205460ff16620001825760008381526005602090815260408083206001600160a01b03861684529091529020805460ff19166001179055620001393390565b6001600160a01b0316826001600160a01b0316847f2f8788117e7eff1d82e926ec794901d17c78024a50270940304540a733656f0d60405160405180910390a450600162000186565b5060005b92915050565b634e487b7160e01b600052604160045260246000fd5b600082601f830112620001b457600080fd5b81516001600160401b0380821115620001d157620001d16200018c565b604051601f8301601f19908116603f01168101908282118183101715620001fc57620001fc6200018c565b816040528381526020925086838588010111156200021957600080fd5b600091505b838210156200023d57858201830151818301840152908201906200021e565b600093810190920192909252949350505050565b600080600080608085870312156200026857600080fd5b84516001600160401b03808211156200028057600080fd5b6200028e88838901620001a2565b95506020870151915080821115620002a557600080fd5b50620002b487828801620001a2565b604087015190945090506001600160a01b0381168114620002d457600080fd5b606086015190925060ff81168114620002ec57600080fd5b939692955090935050565b600181811c908216806200030c57607f821691505b6020821081036200032d57634e487b7160e01b600052602260045260246000fd5b50919050565b601f8211156200038157600081815260208120601f850160051c810160208610156200035c5750805b601f850160051c820191505b818110156200037d5782815560010162000368565b5050505b505050565b81516001600160401b03811115620003a257620003a26200018c565b620003ba81620003b38454620002f7565b8462000333565b602080601f831160018114620003f25760008415620003d95750858301515b600019600386901b1c1916600185901b1785556200037d565b600085815260208120601f198616915b82811015620004235788860151825594840194600190910190840162000402565b5085821015620004425787850151600019600388901b60f8161c191681555b5050505050600190811b01905550565b608051610c136200046e60003960006101da0152610c136000f3fe608060405234801561001057600080fd5b50600436106101215760003560e01c806340c10f19116100ad578063a217fddf11610071578063a217fddf14610281578063a9059cbb14610289578063d53913931461029c578063d547741f146102c3578063dd62ed3e146102d657600080fd5b806340c10f191461021757806370a082311461022a57806379cc67901461025357806391d148541461026657806395d89b411461027957600080fd5b806323b872dd116100f457806323b872dd14610188578063248a9ca31461019b5780632f2ff15d146101be578063313ce567146101d357806336568abe1461020457600080fd5b806301ffc9a71461012657806306fdde031461014e578063095ea7b31461016357806318160ddd14610176575b600080fd5b6101396101343660046109f7565b61030f565b60405190151581526020015b60405180910390f35b610156610346565b6040516101459190610a28565b610139610171366004610a92565b6103d8565b6002545b604051908152602001610145565b610139610196366004610abc565b6103f0565b61017a6101a9366004610af8565b60009081526005602052604090206001015490565b6101d16101cc366004610b11565b610414565b005b60405160ff7f0000000000000000000000000000000000000000000000000000000000000000168152602001610145565b6101d1610212366004610b11565b61043f565b6101d1610225366004610a92565b610477565b61017a610238366004610b3d565b6001600160a01b031660009081526020819052604090205490565b6101d1610261366004610a92565b6104ab565b610139610274366004610b11565b6104ea565b610156610515565b61017a600081565b610139610297366004610a92565b610524565b61017a7f9f2df0fed2c77648de5860a4cc508cd0818c85b8b8a1ab4ceeef8d981c8956a681565b6101d16102d1366004610b11565b610532565b61017a6102e4366004610b58565b6001600160a01b03918216600090815260016020908152604080832093909416825291909152205490565b60006001600160e01b03198216637965db0b60e01b148061034057506301ffc9a760e01b6001600160e01b03198316145b92915050565b60606003805461035590610b82565b80601f016020809104026020016040519081016040528092919081815260200182805461038190610b82565b80156103ce5780601f106103a3576101008083540402835291602001916103ce565b820191906000526020600020905b8154815290600101906020018083116103b157829003601f168201915b5050505050905090565b6000336103e6818585610557565b5060019392505050565b6000336103fe858285610564565b6104098585856105e2565b506001949350505050565b60008281526005602052604090206001015461042f81610641565b610439838361064e565b50505050565b6001600160a01b03811633146104685760405163334bd91960e11b815260040160405180910390fd5b61047282826106e2565b505050565b7f9f2df0fed2c77648de5860a4cc508cd0818c85b8b8a1ab4ceeef8d981c8956a66104a181610641565b610472838361074f565b7f9f2df0fed2c77648de5860a4cc508cd0818c85b8b8a1ab4ceeef8d981c8956a66104d581610641565b6104e0833384610564565b6104728383610789565b60009182526005602090815260408084206001600160a01b0393909316845291905290205460ff1690565b60606004805461035590610b82565b6000336103e68185856105e2565b60008281526005602052604090206001015461054d81610641565b61043983836106e2565b61047283838360016107bf565b6001600160a01b0383811660009081526001602090815260408083209386168352929052205460001981101561043957818110156105d357604051637dc7a0d960e11b81526001600160a01b038416600482015260248101829052604481018390526064015b60405180910390fd5b610439848484840360006107bf565b6001600160a01b03831661060c57604051634b637e8f60e11b8152600060048201526024016105ca565b6001600160a01b0382166106365760405163ec442f0560e01b8152600060048201526024016105ca565b610472838383610894565b61064b81336109be565b50565b600061065a83836104ea565b6106da5760008381526005602090815260408083206001600160a01b03861684529091529020805460ff191660011790556106923390565b6001600160a01b0316826001600160a01b0316847f2f8788117e7eff1d82e926ec794901d17c78024a50270940304540a733656f0d60405160405180910390a4506001610340565b506000610340565b60006106ee83836104ea565b156106da5760008381526005602090815260408083206001600160a01b0386168085529252808320805460ff1916905551339286917ff6391f5c32d9c69d2a47ea670b442974b53935d1edc7fd64eb21e047a839171b9190a4506001610340565b6001600160a01b0382166107795760405163ec442f0560e01b8152600060048201526024016105ca565b61078560008383610894565b5050565b6001600160a01b0382166107b357604051634b637e8f60e11b8152600060048201526024016105ca565b61078582600083610894565b6001600160a01b0384166107e95760405163e602df0560e01b8152600060048201526024016105ca565b6001600160a01b03831661081357604051634a1406b160e11b8152600060048201526024016105ca565b6001600160a01b038085166000908152600160209081526040808320938716835292905220829055801561043957826001600160a01b0316846001600160a01b03167f8c5be1e5ebec7d5bd14f71427d1e84f3dd0314c0f7b2291e5b200ac8c7c3b9258460405161088691815260200190565b60405180910390a350505050565b6001600160a01b0383166108bf5780600260008282546108b49190610bbc565b909155506109319050565b6001600160a01b038316600090815260208190526040902054818110156109125760405163391434e360e21b81526001600160a01b038516600482015260248101829052604481018390526064016105ca565b6001600160a01b03841660009081526020819052604090209082900390555b6001600160a01b03821661094d5760028054829003905561096c565b6001600160a01b03821660009081526020819052604090208054820190555b816001600160a01b0316836001600160a01b03167fddf252ad1be2c89b69c2b068fc378daa952ba7f163c4a11628f55a4df523b3ef836040516109b191815260200190565b60405180910390a3505050565b6109c882826104ea565b6107855760405163e2517d3f60e01b81526001600160a01b0382166004820152602481018390526044016105ca565b600060208284031215610a0957600080fd5b81356001600160e01b031981168114610a2157600080fd5b9392505050565b600060208083528351808285015260005b81811015610a5557858101830151858201604001528201610a39565b506000604082860101526040601f19601f8301168501019250505092915050565b80356001600160a01b0381168114610a8d57600080fd5b919050565b60008060408385031215610aa557600080fd5b610aae83610a76565b946020939093013593505050565b600080600060608486031215610ad157600080fd5b610ada84610a76565b9250610ae860208501610a76565b9150604084013590509250925092565b600060208284031215610b0a57600080fd5b5035919050565b60008060408385031215610b2457600080fd5b82359150610b3460208401610a76565b90509250929050565b600060208284031215610b4f57600080fd5b610a2182610a76565b60008060408385031215610b6b57600080fd5b610b7483610a76565b9150610b3460208401610a76565b600181811c90821680610b9657607f821691505b602082108103610bb657634e487b7160e01b600052602260045260246000fd5b50919050565b8082018082111561034057634e487b7160e01b600052601160045260246000fdfea26469706673582212208d3b2141f0c0f9cf16bbedc21e32db016bcb70be4383300da0aa12bfec0584e664736f6c63430008140033",
  "linkReferences": {},
  "deployedLinkReferences": {}
}